{
  "contractName": "DoSGasVictim",
  "abi": [
    {
      "constant": true,
      "inputs": [
        {
          "name": "",
          "type": "uint256"
        }
      ],
      "name": "users",
      "outputs": [
        {
          "name": "",
          "type": "address"
        }
      ],
      "payable": false,
      "stateMutability": "view",
      "type": "function"
    },
    {
      "constant": false,
      "inputs": [
        {
          "name": "_addr",
          "type": "address"
        }
      ],
      "name": "addUser",
      "outputs": [],
      "payable": false,
      "stateMutability": "nonpayable",
      "type": "function"
    },
    {
      "constant": false,
      "inputs": [],
      "name": "loopUsers",
      "outputs": [],
      "payable": false,
      "stateMutability": "nonpayable",
      "type": "function"
    },
    {
      "constant": true,
      "inputs": [],
      "name": "totalUsers",
      "outputs": [
        {
          "name": "",
          "type": "uint256"
        }
      ],
      "payable": false,
      "stateMutability": "view",
      "type": "function"
    }
  ],
  "bytecode": "0x608060405234801561001057600080fd5b50610373806100206000396000f300608060405260043610610062576000357c0100000000000000000000000000000000000000000000000000000000900463ffffffff168063365b98b214610067578063421b2d8b146100d4578063bff1f9e114610117578063d8e49bd614610142575b600080fd5b34801561007357600080fd5b5061009260048036038101908080359060200190929190505050610159565b604051808273ffffffffffffffffffffffffffffffffffffffff1673ffffffffffffffffffffffffffffffffffffffff16815260200191505060405180910390f35b3480156100e057600080fd5b50610115600480360381019080803573ffffffffffffffffffffffffffffffffffffffff169060200190929190505050610197565b005b34801561012357600080fd5b5061012c610200565b6040518082815260200191505060405180910390f35b34801561014e57600080fd5b5061015761020c565b005b60008181548110151561016857fe5b906000526020600020016000915054906101000a900473ffffffffffffffffffffffffffffffffffffffff1681565b60008190806001815401808255809150509060018203906000526020600020016000909192909190916101000a81548173ffffffffffffffffffffffffffffffffffffffff021916908373ffffffffffffffffffffffffffffffffffffffff1602179055505050565b60008080549050905090565b60008090505b600080549050811015610344576001600360008381548110151561023257fe5b9060005260206000200160009054906101000a900473ffffffffffffffffffffffffffffffffffffffff16604051808273ffffffffffffffffffffffffffffffffffffffff1673ffffffffffffffffffffffffffffffffffffffff166c010000000000000000000000000281526014019150506020604051808303816000865af11580156102c4573d6000803e3d6000fd5b505050604051516c010000000000000000000000000290806001815401808255809150509060018203906000526020600020016000909192909190916101000a81548173ffffffffffffffffffffffffffffffffffffffff02191690836c0100000000000000000000000090040217905550508080600101915050610212565b505600a165627a7a723058205d18671bfa69390ebd634fce635a12c81d6701c2618fe93c59c324d211a3b7790029",
  "source": "pragma solidity ^0.4.19;\n\ncontract DoSGasVictim {\n  address[] public users;\n  bytes20[] hashes;\n\n  function addUser(address _addr) public {\n    users.push(_addr);\n  }\n\n  function loopUsers() {\n    for(uint i = 0; i < users.length; i++) {\n      hashes.push(ripemd160(users[i]));\n    }\n  }\n\n  function totalUsers() constant returns (uint256) {\n    return users.length;\n  }\n}",
  "sourcePath": "/home/hayek/proj/security-exploits/contracts/DoSGas/DoSGasVictim.sol",
  "compiler": {
    "name": "solc",
    "version": "0.4.23+commit.124ca40d.Emscripten.clang"
  },
  "schemaVersion": "2.0.0",
  "updatedAt": "2018-06-24T04:16:54.712Z"
}