{
  "contractName": "DoSRevertVictim",
  "abi": [
    {
      "constant": false,
      "inputs": [],
      "name": "constructor",
      "outputs": [],
      "payable": false,
      "stateMutability": "nonpayable",
      "type": "function"
    },
    {
      "constant": false,
      "inputs": [],
      "name": "becomeKing",
      "outputs": [],
      "payable": true,
      "stateMutability": "payable",
      "type": "function"
    },
    {
      "constant": true,
      "inputs": [],
      "name": "getKing",
      "outputs": [
        {
          "name": "",
          "type": "address"
        }
      ],
      "payable": false,
      "stateMutability": "view",
      "type": "function"
    }
  ],
  "bytecode": "0x608060405234801561001057600080fd5b5061022e806100206000396000f300608060405260043610610057576000357c0100000000000000000000000000000000000000000000000000000000900463ffffffff1680636708cc631461005c5780637920d8041461006657806390fa17bb146100bd575b600080fd5b6100646100d4565b005b34801561007257600080fd5b5061007b610190565b604051808273ffffffffffffffffffffffffffffffffffffffff1673ffffffffffffffffffffffffffffffffffffffff16815260200191505060405180910390f35b3480156100c957600080fd5b506100d26101b9565b005b600154341115156100e457600080fd5b6000809054906101000a900473ffffffffffffffffffffffffffffffffffffffff1673ffffffffffffffffffffffffffffffffffffffff166108fc6001549081150290604051600060405180830381858888f19350505050151561014757600080fd5b34600181905550336000806101000a81548173ffffffffffffffffffffffffffffffffffffffff021916908373ffffffffffffffffffffffffffffffffffffffff160217905550565b60008060009054906101000a900473ffffffffffffffffffffffffffffffffffffffff16905090565b336000806101000a81548173ffffffffffffffffffffffffffffffffffffffff021916908373ffffffffffffffffffffffffffffffffffffffff160217905550346001819055505600a165627a7a7230582087a7008c0b959f85cc9dd88042bce06d11aa5cac9305c7747cfe525265e9a1640029",
  "source": "pragma solidity ^0.4.19;\n\ncontract DoSRevertVictim {\n  address kingOfPonzi;\n  uint256 kingFee;\n\n  function constructor() {\n    kingOfPonzi = msg.sender;\n    kingFee = msg.value;\n  }\n\n  function becomeKing() payable {\n    require(msg.value > kingFee);\n    require(kingOfPonzi.send(kingFee));\n\n    kingFee = msg.value;\n    kingOfPonzi = msg.sender;\n  }\n\n  function getKing() constant returns (address) {\n    return kingOfPonzi;\n  }\n}",
  "sourcePath": "/home/hayek/proj/security-exploits/contracts/DoSRevert/DoSRevertVictim.sol",
  "compiler": {
    "name": "solc",
    "version": "0.4.23+commit.124ca40d.Emscripten.clang"
  },
  "schemaVersion": "2.0.0",
  "updatedAt": "2018-06-24T04:16:54.712Z"
}