{
  "contractName": "Flow",
  "abi": [
    {
      "constant": true,
      "inputs": [],
      "name": "underflow",
      "outputs": [
        {
          "name": "",
          "type": "uint8"
        }
      ],
      "payable": false,
      "stateMutability": "view",
      "type": "function"
    },
    {
      "constant": true,
      "inputs": [],
      "name": "overflow",
      "outputs": [
        {
          "name": "",
          "type": "uint8"
        }
      ],
      "payable": false,
      "stateMutability": "view",
      "type": "function"
    },
    {
      "constant": false,
      "inputs": [],
      "name": "neverEnds",
      "outputs": [],
      "payable": false,
      "stateMutability": "nonpayable",
      "type": "function"
    }
  ],
  "bytecode": "0x608060405234801561001057600080fd5b5061015a806100206000396000f300608060405260043610610056576000357c0100000000000000000000000000000000000000000000000000000000900463ffffffff1680624264c31461005b578063a24e23061461008c578063dc75bec7146100a3575b600080fd5b34801561006757600080fd5b506100706100d4565b604051808260ff1660ff16815260200191505060405180910390f35b34801561009857600080fd5b506100a16100e5565b005b3480156100af57600080fd5b506100b861011d565b604051808260ff1660ff16815260200191505060405180910390f35b60008060ff90506003810191505090565b60008060006103e8925060009150600090505b828160ff16101561011857818060010192505080806001019150506100f8565b505050565b6000806001905060058103915050905600a165627a7a723058207e69ed81e2a204fb8f362552bbdc0bcb0aa62d4792711cc0c04a01a94770fb790029",
  "source": "pragma solidity ^0.4.19;\n\ncontract Flow {\n\n  function underflow() constant returns (uint8) {\n    uint8 smallInt = 1;\n    return smallInt - 5;\n  }\n\n  function overflow() constant returns (uint8) {\n    uint8 smallInt = 255;\n    return smallInt + 3;\n  }\n\n  function neverEnds() {\n    uint256 bigInt = 1000;\n    uint256 counter = 0;\n    for (var i = 0; i < bigInt; i++) {\n      counter++;\n    }\n  }\n}",
  "sourcePath": "/home/hayek/proj/security-exploits/contracts/UnderOverFlow/Flow.sol",
  "compiler": {
    "name": "solc",
    "version": "0.4.23+commit.124ca40d.Emscripten.clang"
  },
  "schemaVersion": "2.0.0",
  "updatedAt": "2018-06-24T04:16:54.715Z"
}