{
  "contractName": "ForceEther",
  "abi": [
    {
      "payable": true,
      "stateMutability": "payable",
      "type": "fallback"
    },
    {
      "constant": false,
      "inputs": [
        {
          "name": "_addr",
          "type": "address"
        }
      ],
      "name": "selfDestruct",
      "outputs": [],
      "payable": false,
      "stateMutability": "nonpayable",
      "type": "function"
    }
  ],
  "bytecode": "0x608060405234801561001057600080fd5b5060c68061001f6000396000f300608060405260043610603f576000357c0100000000000000000000000000000000000000000000000000000000900463ffffffff1680633f5a0bdd146041575b005b348015604c57600080fd5b50607f600480360381019080803573ffffffffffffffffffffffffffffffffffffffff1690602001909291905050506081565b005b8073ffffffffffffffffffffffffffffffffffffffff16ff00a165627a7a723058208da4e1b95ba2c40d8b901a3a47bfb6070bf349219874a868c3ecffe196b37efa0029",
  "source": "pragma solidity ^0.4.19;\n\ncontract ForceEther {\n  function() payable {\n\n  }\n  function selfDestruct(address _addr) {\n    selfdestruct(_addr);\n  }\n}",
  "sourcePath": "/home/hayek/proj/security-exploits/contracts/ForceEther/ForceEther.sol",
  "compiler": {
    "name": "solc",
    "version": "0.4.23+commit.124ca40d.Emscripten.clang"
  },
  "schemaVersion": "2.0.0",
  "updatedAt": "2018-06-24T04:16:54.712Z"
}