{
  "contractName": "FunctionTypes",
  "abi": [
    {
      "inputs": [],
      "payable": true,
      "stateMutability": "payable",
      "type": "constructor"
    },
    {
      "constant": false,
      "inputs": [],
      "name": "breakIt",
      "outputs": [],
      "payable": true,
      "stateMutability": "payable",
      "type": "function"
    }
  ],
  "bytecode": "0x60806040526000341415151561001457600080fd5b610231806100236000396000f300608060405260043610610041576000357c0100000000000000000000000000000000000000000000000000000000900463ffffffff1680636a1f9e1914610046575b600080fd5b61004e610050565b005b6100586101ee565b600034141515156100d1576040517f08c379a000000000000000000000000000000000000000000000000000000000815260040180806020018281038252600b8152602001807f73656e642066756e64732100000000000000000000000000000000000000000081525060200191505060405180910390fd5b61010c816000019067ffffffffffffffff16908167ffffffffffffffff1681525050348151018152610109816000015163ffffffff16565b50565b610114610116565b565b60003414151561018e576040517f08c379a00000000000000000000000000000000000000000000000000000000081526004018080602001828103825260108152602001807f646f6e742073656e642066756e6473210000000000000000000000000000000081525060200191505060405180910390fd5b3373ffffffffffffffffffffffffffffffffffffffff166108fc3073ffffffffffffffffffffffffffffffffffffffff16319081150290604051600060405180830381858888f193505050501580156101eb573d6000803e3d6000fd5b50565b60206040519081016040528061020381525090565bfe00a165627a7a72305820d262b684508caf754797ca13ee22d7f039f2c2307fc0f284b785dbea7fc9ca100029",
  "source": "pragma solidity ^0.4.23;\n\ncontract FunctionTypes {\n\n    constructor() public payable { require(msg.value != 0); }\n\n    function withdraw() private {\n        require(msg.value == 0, 'dont send funds!');\n        address(msg.sender).transfer(address(this).balance);\n    }\n\n    function frwd() internal\n        { withdraw(); }\n\n    struct Func { function () internal f; }\n\n    function breakIt() public payable {\n        require(msg.value != 0, 'send funds!');\n        Func memory func;\n        func.f = frwd;\n        assembly { mstore(func, add(mload(func), callvalue)) }\n        func.f();\n    }\n}",
  "sourcePath": "/home/hayek/proj/security-exploits/contracts/FunctionTypes/FunctionTypes.sol",
  "compiler": {
    "name": "solc",
    "version": "0.4.23+commit.124ca40d.Emscripten.clang"
  },
  "schemaVersion": "2.0.0",
  "updatedAt": "2018-06-24T04:16:54.712Z"
}