{
  "contractName": "Logger",
  "abi": [
    {
      "constant": true,
      "inputs": [],
      "name": "LastLine",
      "outputs": [
        {
          "name": "sender",
          "type": "address"
        },
        {
          "name": "amount",
          "type": "uint256"
        },
        {
          "name": "note",
          "type": "string"
        }
      ],
      "payable": false,
      "stateMutability": "view",
      "type": "function"
    },
    {
      "constant": false,
      "inputs": [
        {
          "name": "_sender",
          "type": "address"
        },
        {
          "name": "_amount",
          "type": "uint256"
        },
        {
          "name": "_note",
          "type": "string"
        }
      ],
      "name": "LogTransfer",
      "outputs": [],
      "payable": false,
      "stateMutability": "nonpayable",
      "type": "function"
    }
  ],
  "bytecode": "0x608060405234801561001057600080fd5b5061050d806100206000396000f30060806040526004361061004c576000357c0100000000000000000000000000000000000000000000000000000000900463ffffffff16806310176f8614610051578063da223bc3146100e4575b600080fd5b34801561005d57600080fd5b506100e2600480360381019080803573ffffffffffffffffffffffffffffffffffffffff16906020019092919080359060200190929190803590602001908201803590602001908080601f01602080910402602001604051908101604052809392919081815260200183838082843782019150505050505091929192905050506101ae565b005b3480156100f057600080fd5b506100f96102e5565b604051808473ffffffffffffffffffffffffffffffffffffffff1673ffffffffffffffffffffffffffffffffffffffff16815260200183815260200180602001828103825283818151815260200191508051906020019080838360005b83811015610171578082015181840152602081019050610156565b50505050905090810190601f16801561019e5780820380516001836020036101000a031916815260200191505b5094505050505060405180910390f35b82600160000160006101000a81548173ffffffffffffffffffffffffffffffffffffffff021916908373ffffffffffffffffffffffffffffffffffffffff16021790555081600180018190555080600160020190805190602001906102149291906103b5565b5060006001908060018154018082558091505090600182039060005260206000209060030201600090919290919091506000820160009054906101000a900473ffffffffffffffffffffffffffffffffffffffff168160000160006101000a81548173ffffffffffffffffffffffffffffffffffffffff021916908373ffffffffffffffffffffffffffffffffffffffff16021790555060018201548160010155600282018160020190805460018160011615610100020316600290046102dc929190610435565b50505050505050565b60018060000160009054906101000a900473ffffffffffffffffffffffffffffffffffffffff1690806001015490806002018054600181600116156101000203166002900480601f0160208091040260200160405190810160405280929190818152602001828054600181600116156101000203166002900480156103ab5780601f10610380576101008083540402835291602001916103ab565b820191906000526020600020905b81548152906001019060200180831161038e57829003601f168201915b5050505050905083565b828054600181600116156101000203166002900490600052602060002090601f016020900481019282601f106103f657805160ff1916838001178555610424565b82800160010185558215610424579182015b82811115610423578251825591602001919060010190610408565b5b50905061043191906104bc565b5090565b828054600181600116156101000203166002900490600052602060002090601f016020900481019282601f1061046e57805485556104ab565b828001600101855582156104ab57600052602060002091601f016020900482015b828111156104aa57825482559160010191906001019061048f565b5b5090506104b891906104bc565b5090565b6104de91905b808211156104da5760008160009055506001016104c2565b5090565b905600a165627a7a723058204f5cb9244c2cbfbd0cb68e3bf68df06f70848c58c7513ecec5a6b0a86f359fc20029",
  "source": "pragma solidity ^0.4.19;\n\ncontract TrustFund {\n  address owner;\n  uint256 public minDeposit;\n  mapping (address => uint256) balances;\n  Logger public TrustLog;\n\n  function constructor(uint256 _minDeposit, address _logger) public payable {\n    owner = msg.sender;\n    minDeposit = _minDeposit;\n    TrustLog = Logger(_logger);\n  }\n\n  function deposit() public payable returns (bool) {\n    if (msg.value > minDeposit) {\n      balances[msg.sender]+=msg.value;\n      TrustLog.LogTransfer(msg.sender,msg.value,\"deposit\");\n    } else {\n      TrustLog.LogTransfer(msg.sender,msg.value,\"depositFailed\");\n    }\n  }\n\n  function withdraw(uint256 _amount) public {\n    if(_amount <= balances[msg.sender]) {\n      if(msg.sender.call.value(_amount)()) {\n        balances[msg.sender] -= _amount;\n        TrustLog.LogTransfer(msg.sender, _amount, \"withdraw\");\n      } else {\n        TrustLog.LogTransfer(msg.sender, _amount, \"withdrawFailed\");\n      }\n    }\n  }\n\n  function checkBalance(address _addr) public view returns (uint256) {\n    return balances[_addr];\n  }\n}\n\ncontract Logger {\n  struct Message {\n    address sender;\n    uint256 amount;\n    string note;\n  }\n\n  Message[] History;\n  Message public LastLine;\n\n  function LogTransfer(address _sender, uint256 _amount, string _note) {\n    LastLine.sender = _sender;\n    LastLine.amount = _amount;\n    LastLine.note = _note;\n    History.push(LastLine);\n  }\n}",
  "sourcePath": "/home/hayek/proj/security-exploits/contracts/HoneyPot1/TrustFund.sol",
  "compiler": {
    "name": "solc",
    "version": "0.4.23+commit.124ca40d.Emscripten.clang"
  },
  "schemaVersion": "2.0.0",
  "updatedAt": "2018-06-24T04:16:54.713Z"
}