{
  "contractName": "ReentrancyVictim",
  "abi": [
    {
      "constant": false,
      "inputs": [],
      "name": "deposit",
      "outputs": [],
      "payable": true,
      "stateMutability": "payable",
      "type": "function"
    },
    {
      "constant": false,
      "inputs": [],
      "name": "withdraw",
      "outputs": [],
      "payable": false,
      "stateMutability": "nonpayable",
      "type": "function"
    },
    {
      "constant": true,
      "inputs": [
        {
          "name": "addr",
          "type": "address"
        }
      ],
      "name": "balanceOf",
      "outputs": [
        {
          "name": "",
          "type": "uint256"
        }
      ],
      "payable": false,
      "stateMutability": "view",
      "type": "function"
    },
    {
      "constant": true,
      "inputs": [],
      "name": "getContractBalance",
      "outputs": [
        {
          "name": "",
          "type": "uint256"
        }
      ],
      "payable": false,
      "stateMutability": "view",
      "type": "function"
    }
  ],
  "bytecode": "0x608060405234801561001057600080fd5b5061029c806100206000396000f300608060405260043610610062576000357c0100000000000000000000000000000000000000000000000000000000900463ffffffff1680633ccfd60b146100675780636f9fb98a1461007e57806370a08231146100a9578063d0e30db014610100575b600080fd5b34801561007357600080fd5b5061007c61010a565b005b34801561008a57600080fd5b506100936101bb565b6040518082815260200191505060405180910390f35b3480156100b557600080fd5b506100ea600480360381019080803573ffffffffffffffffffffffffffffffffffffffff1690602001909291905050506101da565b6040518082815260200191505060405180910390f35b610108610222565b005b3373ffffffffffffffffffffffffffffffffffffffff166000803373ffffffffffffffffffffffffffffffffffffffff1673ffffffffffffffffffffffffffffffffffffffff1681526020019081526020016000205460405160006040518083038185875af1925050505060008060003373ffffffffffffffffffffffffffffffffffffffff1673ffffffffffffffffffffffffffffffffffffffff16815260200190815260200160002081905550565b60003073ffffffffffffffffffffffffffffffffffffffff1631905090565b60008060008373ffffffffffffffffffffffffffffffffffffffff1673ffffffffffffffffffffffffffffffffffffffff168152602001908152602001600020549050919050565b346000803373ffffffffffffffffffffffffffffffffffffffff1673ffffffffffffffffffffffffffffffffffffffff168152602001908152602001600020600082825401925050819055505600a165627a7a72305820b9ebac1d1e1c8a5a30519538d8fd883f5e4aa5e77046069b9593cc08e50f70e80029",
  "source": "pragma solidity ^0.4.19;\n\ncontract ReentrancyVictim {\n  mapping (address => uint256) balances;\n\n  function deposit() payable {\n    balances[msg.sender] += msg.value;\n  }\n\n  function withdraw() {\n    msg.sender.call.value(balances[msg.sender])();\n    balances[msg.sender] = 0;\n  }\n\n  function balanceOf(address addr) constant returns (uint256) {\n    return balances[addr];\n  }\n\n  function getContractBalance() constant returns (uint256) {\n    return this.balance;\n  }\n}",
  "sourcePath": "/home/hayek/proj/security-exploits/contracts/Reentrancy/ReentrancyVictim.sol",
  "compiler": {
    "name": "solc",
    "version": "0.4.23+commit.124ca40d.Emscripten.clang"
  },
  "schemaVersion": "2.0.0",
  "updatedAt": "2018-06-24T04:16:54.715Z"
}