{
  "contractName": "TrustFund",
  "abi": [
    {
      "constant": true,
      "inputs": [],
      "name": "minDeposit",
      "outputs": [
        {
          "name": "",
          "type": "uint256"
        }
      ],
      "payable": false,
      "stateMutability": "view",
      "type": "function"
    },
    {
      "constant": true,
      "inputs": [],
      "name": "TrustLog",
      "outputs": [
        {
          "name": "",
          "type": "address"
        }
      ],
      "payable": false,
      "stateMutability": "view",
      "type": "function"
    },
    {
      "constant": false,
      "inputs": [
        {
          "name": "_minDeposit",
          "type": "uint256"
        },
        {
          "name": "_logger",
          "type": "address"
        }
      ],
      "name": "constructor",
      "outputs": [],
      "payable": true,
      "stateMutability": "payable",
      "type": "function"
    },
    {
      "constant": false,
      "inputs": [],
      "name": "deposit",
      "outputs": [
        {
          "name": "",
          "type": "bool"
        }
      ],
      "payable": true,
      "stateMutability": "payable",
      "type": "function"
    },
    {
      "constant": false,
      "inputs": [
        {
          "name": "_amount",
          "type": "uint256"
        }
      ],
      "name": "withdraw",
      "outputs": [],
      "payable": false,
      "stateMutability": "nonpayable",
      "type": "function"
    },
    {
      "constant": true,
      "inputs": [
        {
          "name": "_addr",
          "type": "address"
        }
      ],
      "name": "checkBalance",
      "outputs": [
        {
          "name": "",
          "type": "uint256"
        }
      ],
      "payable": false,
      "stateMutability": "view",
      "type": "function"
    }
  ],
  "bytecode": "0x608060405234801561001057600080fd5b5061089c806100206000396000f300608060405260043610610078576000357c0100000000000000000000000000000000000000000000000000000000900463ffffffff1680632e1a7d4d1461007d57806341b3d185146100aa5780635f515226146100d5578063c6694b661461012c578063d0e30db01461016c578063df6803d31461018e575b600080fd5b34801561008957600080fd5b506100a8600480360381019080803590602001909291905050506101e5565b005b3480156100b657600080fd5b506100bf6104e1565b6040518082815260200191505060405180910390f35b3480156100e157600080fd5b50610116600480360381019080803573ffffffffffffffffffffffffffffffffffffffff1690602001909291905050506104e7565b6040518082815260200191505060405180910390f35b61016a60048036038101908080359060200190929190803573ffffffffffffffffffffffffffffffffffffffff169060200190929190505050610530565b005b6101746105bc565b604051808215151515815260200191505060405180910390f35b34801561019a57600080fd5b506101a361084a565b604051808273ffffffffffffffffffffffffffffffffffffffff1673ffffffffffffffffffffffffffffffffffffffff16815260200191505060405180910390f35b600260003373ffffffffffffffffffffffffffffffffffffffff1673ffffffffffffffffffffffffffffffffffffffff16815260200190815260200160002054811115156104de573373ffffffffffffffffffffffffffffffffffffffff168160405160006040518083038185875af192505050156103c65780600260003373ffffffffffffffffffffffffffffffffffffffff1673ffffffffffffffffffffffffffffffffffffffff16815260200190815260200160002060008282540392505081905550600360009054906101000a900473ffffffffffffffffffffffffffffffffffffffff1673ffffffffffffffffffffffffffffffffffffffff166310176f8633836040518363ffffffff167c0100000000000000000000000000000000000000000000000000000000028152600401808373ffffffffffffffffffffffffffffffffffffffff1673ffffffffffffffffffffffffffffffffffffffff16815260200182815260200180602001828103825260088152602001807f77697468647261770000000000000000000000000000000000000000000000008152506020019350505050600060405180830381600087803b1580156103a957600080fd5b505af11580156103bd573d6000803e3d6000fd5b505050506104dd565b600360009054906101000a900473ffffffffffffffffffffffffffffffffffffffff1673ffffffffffffffffffffffffffffffffffffffff166310176f8633836040518363ffffffff167c0100000000000000000000000000000000000000000000000000000000028152600401808373ffffffffffffffffffffffffffffffffffffffff1673ffffffffffffffffffffffffffffffffffffffff168152602001828152602001806020018281038252600e8152602001807f77697468647261774661696c65640000000000000000000000000000000000008152506020019350505050600060405180830381600087803b1580156104c457600080fd5b505af11580156104d8573d6000803e3d6000fd5b505050505b5b50565b60015481565b6000600260008373ffffffffffffffffffffffffffffffffffffffff1673ffffffffffffffffffffffffffffffffffffffff168152602001908152602001600020549050919050565b336000806101000a81548173ffffffffffffffffffffffffffffffffffffffff021916908373ffffffffffffffffffffffffffffffffffffffff1602179055508160018190555080600360006101000a81548173ffffffffffffffffffffffffffffffffffffffff021916908373ffffffffffffffffffffffffffffffffffffffff1602179055505050565b60006001543411156107305734600260003373ffffffffffffffffffffffffffffffffffffffff1673ffffffffffffffffffffffffffffffffffffffff16815260200190815260200160002060008282540192505081905550600360009054906101000a900473ffffffffffffffffffffffffffffffffffffffff1673ffffffffffffffffffffffffffffffffffffffff166310176f8633346040518363ffffffff167c0100000000000000000000000000000000000000000000000000000000028152600401808373ffffffffffffffffffffffffffffffffffffffff1673ffffffffffffffffffffffffffffffffffffffff16815260200182815260200180602001828103825260078152602001807f6465706f736974000000000000000000000000000000000000000000000000008152506020019350505050600060405180830381600087803b15801561071357600080fd5b505af1158015610727573d6000803e3d6000fd5b50505050610847565b600360009054906101000a900473ffffffffffffffffffffffffffffffffffffffff1673ffffffffffffffffffffffffffffffffffffffff166310176f8633346040518363ffffffff167c0100000000000000000000000000000000000000000000000000000000028152600401808373ffffffffffffffffffffffffffffffffffffffff1673ffffffffffffffffffffffffffffffffffffffff168152602001828152602001806020018281038252600d8152602001807f6465706f7369744661696c6564000000000000000000000000000000000000008152506020019350505050600060405180830381600087803b15801561082e57600080fd5b505af1158015610842573d6000803e3d6000fd5b505050505b90565b600360009054906101000a900473ffffffffffffffffffffffffffffffffffffffff16815600a165627a7a723058207bf383bab0ea95d86d38fd79c5de1766bb3a2bea08dcae6d9a8abfcefe6b452b0029",
  "source": "pragma solidity ^0.4.19;\n\ncontract TrustFund {\n  address owner;\n  uint256 public minDeposit;\n  mapping (address => uint256) balances;\n  Logger public TrustLog;\n\n  function constructor(uint256 _minDeposit, address _logger) public payable {\n    owner = msg.sender;\n    minDeposit = _minDeposit;\n    TrustLog = Logger(_logger);\n  }\n\n  function deposit() public payable returns (bool) {\n    if (msg.value > minDeposit) {\n      balances[msg.sender]+=msg.value;\n      TrustLog.LogTransfer(msg.sender,msg.value,\"deposit\");\n    } else {\n      TrustLog.LogTransfer(msg.sender,msg.value,\"depositFailed\");\n    }\n  }\n\n  function withdraw(uint256 _amount) public {\n    if(_amount <= balances[msg.sender]) {\n      if(msg.sender.call.value(_amount)()) {\n        balances[msg.sender] -= _amount;\n        TrustLog.LogTransfer(msg.sender, _amount, \"withdraw\");\n      } else {\n        TrustLog.LogTransfer(msg.sender, _amount, \"withdrawFailed\");\n      }\n    }\n  }\n\n  function checkBalance(address _addr) public view returns (uint256) {\n    return balances[_addr];\n  }\n}\n\ncontract Logger {\n  struct Message {\n    address sender;\n    uint256 amount;\n    string note;\n  }\n\n  Message[] History;\n  Message public LastLine;\n\n  function LogTransfer(address _sender, uint256 _amount, string _note) {\n    LastLine.sender = _sender;\n    LastLine.amount = _amount;\n    LastLine.note = _note;\n    History.push(LastLine);\n  }\n}",
  "sourcePath": "/home/hayek/proj/security-exploits/contracts/HoneyPot1/TrustFund.sol",
  "compiler": {
    "name": "solc",
    "version": "0.4.23+commit.124ca40d.Emscripten.clang"
  },
  "schemaVersion": "2.0.0",
  "updatedAt": "2018-06-24T04:16:54.714Z"
}